:020000040800F2
:100000009806002099010008A1010008A30100083A
:10001000A5010008A7010008A901000800000000D0
:10002000000000000000000000000000AB0100081C
:10003000AD01000800000000AF010008B101000898
:10004000B3010008B3010008B3010008B3010008C0
:10005000B3010008B3010008B3010008B3010008B0
:10006000B3010008B3010008B3010008B3010008A0
:10007000B3010008B3010008B3010008B301000890
:10008000B3010008B3010008B3010008F111000832
:1000900045120008B3010008B3010008B3010008CD
:1000A000B3010008690F0008B3010008B30100089C
:1000B000B3010008B3010008B3010008B301000850
:1000C000B3010008B3010008B3010008B301000840
:1000D000B3010008B3010008B3010008B301000830
:1000E000B3010008B3010008B301000800F002F8F2
:1000F00000F042F80AA090E8000C82448344AAF180
:100100000107DA4501D100F037F8AFF2090EBAE87D
:100110000F0013F0010F18BFFB1A43F0010318473B
:100120004814000068140000103A24BF78C878C151
:10013000FAD8520724BF30C830C144BF04680C60ED
:10014000704700000023002400250026103A28BF35
:1001500078C1FBD8520728BF30C148BF0B60704739
:10016000642900F0AB80732900F06F810020704794
:100170001FB51FBD10B510BD00F06BF91146FFF79C
:10018000F7FF01F0E5F800F089F903B4FFF7F2FF9B
:1001900003BC00F091F90000094880470948004776
:1001A000FEE7FEE7FEE7FEE7FEE7FEE7FEE7FEE727
:1001B000FEE7FEE704480549054A064B7047000084
:1001C000090F0008ED0000089800002098060020A4
:1001D00098020020980200200FB41CB5074B06AA15
:1001E0007B4469460090059800F005F900206946B7
:1001F00000F014F91CBC5DF814FB0000390200008B
:100200002DE9F0410E460446002020622046E168B8
:10021000884730B3252805D0D4E901219047206ACA
:10022000401CF2E7E168204600278847050018D007
:10023000A5F14100192802D820354FF40067324655
:10024000294620462760FFF78BFF40B1012804D0E4
:10025000F61D26F007060836D8E7361DD6E72846ED
:10026000DAE7206ABDE8F08170B50C460546012A40
:1002700005D02878800600D5EA69002302E0012332
:1002800005E05B1C934202D2E05C0028F9D1A8692A
:10029000E618C01AA861286A184428622846AFF3F5
:1002A000008004E0D5E9012114F8010B9047B44225
:1002B000F8D32846AFF3008070BD00002DE9F0416F
:1002C0000646002410687529314616A510D0AFF3F4
:1002D0000080002802DA404213A507E031688A074F
:1002E00001D512A502E0490704D511A5012401E0BA
:1002F000AFF3008000210A2206F1240709E0B0FBD9
:10030000F2FCB0FBF2F302FB1C00303078541846CC
:10031000491C0028F3D123462A463046BDE8F04167
:1003200000F00BB8000000002D0000002B000000C2
:10033000200000007047704770472DE9F0470D46D8
:1003400099469246044600F124080168880604D5BF
:10035000E06921F01001216000E00120A84201DDE8
:10036000471B00E00027A1697A1902EB0900081A6F
:10037000A0612078C00602D42046AFF3008000269A
:1003800008E0D4E901211AF806009047206A401CD1
:10039000761C20624E45F4DB2078C0060AD5204644
:1003A000AFF3008006E0D4E9012130209047206AB5
:1003B000401C2062381EA7F10107F4DC07E0D4E9F5
:1003C000012118F805009047206A401C2062281E71
:1003D000A5F10105F3DC2046AFF30080207800068C
:1003E00002D50220BDE8F0870120FBE701694A1C25
:1003F00002610878704700B58FB0CDE90131002166
:10040000059105497944CDE9031011466846FFF787
:10041000F7FE0FB000BD0000E5FFFFFF0A6802F81D
:10042000010B0A60704710B5436913B1AFF3008048
:1004300001E0FFF719FF012010BD127800F124013F
:100440000A7000224A700122EDE711684FF0FF3276
:10045000E9E7754600F02CF8AE46050069465346BC
:1004600020F00700854618B020B5FFF7A3FEBDE8D1
:1004700020404FF000064FF000074FF000084FF00B
:10048000000B21F00701AC46ACE8C009ACE8C0099C
:10049000ACE8C009ACE8C0098D46704710B5044609
:1004A000AFF300802046BDE81040FFF76EBE0000AD
:1004B000004870473800002001491820ABBEFEE715
:1004C0002600020070470000B1F5007F3AD00FDC33
:1004D000202928D006DC01291CD004291DD0082998
:1004E00040D11DE0402921D0B1F5807F3AD126E0EE
:1004F000B1F5004F31D006DCB1F5806F25D0B1F5F4
:10050000006F2FD124E0B1F5803F12D0B1F5003F4C
:1005100028D111E0154A826025E00822C26022E05D
:100520001022C2601FE0082202611CE0102202615A
:1005300019E00822426016E01022426013E0042213
:10054000426010E0042242600DE0042242600AE0B2
:10055000002282610422426005E0002282610422BE
:10056000426000E000BF00BF7047000001010100D1
:1005700010B50021837A012202FA03F13D4A126884
:1005800042F001023B4B1A603A4A1C3212688A431D
:10059000384B1C331A60027BCAB9364A0C321268D7
:1005A0008A43344B0C331A604288C38842EA0343BF
:1005B000304A4032847A42F834300288838842EAF2
:1005C00003432C4A4032847A02EBC4025360027B1C
:1005D000012A19D1274A0C3212680A43254B0C33E1
:1005E0001A604288038842EA0343224A4032847AEE
:1005F00042F83430C288838842EA03431D4A4032BD
:10060000847A02EBC4025360C27A3AB9194A121DC5
:1006100012688A43174B1B1D1A6006E0154A121D0B
:1006200012680A43134B1B1D1A60028932B9114A22
:10063000143212688A430F4B14331A600289012A5C
:1006400006D10C4A143212680A430A4B14331A605A
:10065000427B012A06D1074A1C3212680A43054B25
:100660001C331A60034A126822F00102014B1A601F
:1006700010BD00000066004070B504460D4600261F
:1006800060692840002871D0B5F5807F5CD010DC0F
:10069000082D35D006DC012D20D0022D24D0042DCC
:1006A00072D127E0102D31D0202D35D0402D6BD1C7
:1006B00038E0B5F5004F60D009DCB5F5007F49D0D2
:1006C000B5F5806F4CD0B5F5006F5DD14FE0B5F555
:1006D000803F2DD0B5F5003F56D12FE0A0682D49C1
:1006E00000F048FA064651E0E068032100F042FAC3
:1006F00006464BE0E068082100F03CFA064645E07B
:10070000E068102100F036FA06463FE02069032138
:1007100000F030FA064639E02069082100F02AFA94
:10072000064633E02069102100F024FA06462DE049
:100730006068082100F01EFA064627E06068102174
:1007400000F018FA064621E0A069012100F012FA33
:1007500006461BE0A069022100F00CFA064615E0EF
:10076000A069042100F006FA06460FE00FE0A06938
:10077000702100F0FFF9064608E06068042100F0EF
:10078000F9F9064602E0FFE7002600BF00E0002678
:10079000304670BD010101001AB143690B4343614A
:1007A00002E043698B434361704730B50246002045
:1007B0000023146824F002041460146844F0010457
:1007C000146000E05B1C546804F001041CB94FF68F
:1007D000FF74A342F6D1546804F001040CB9002060
:1007E0006CE08C79012C04D1146844F0800414600E
:1007F00003E0146824F080041460CC79012C04D147
:10080000146844F04004146003E0146824F04004C9
:1008100014600C7A012C04D1146844F02004146094
:1008200003E0146824F0200414604C7A012C04D1F5
:10083000146844F01004146003E0146824F01004F9
:1008400014608C7A012C04D1146844F008041460FC
:1008500003E0146824F008041460CC7A012C04D15D
:10086000146844F00404146003E0146824F00404E1
:1008700014608C78A407CD7844EA05640D7944EAC5
:1008800005444D7944EA05540D886D1E2C43D4610E
:10089000146824F001041460002300E05B1C546819
:1008A00004F001041CB14FF6FF74A342F6D1546862
:1008B00004F001040CB1002000E0012030BD10B5AF
:1008C00000F5D87303EB01131B6803F004031372E4
:1008D000137A53B900F5D87303EB01131B6840F288
:1008E000FF7404EA5353136009E000F5D87303EB77
:1008F00001131B686FF0604404EAD303536000F5F2
:10090000D87303EB01131B6803F00203537200F565
:10091000D87303EB01135B6803F00F03937200F5C8
:10092000D87303EB01135B681B0AD37400F5D8730B
:1009300003EB01139B68D37200F5D87303EB01132B
:100940009B681C0A147300F5D87303EB01139B68B2
:100950001C0C547300F5D87303EB01139B681B0E3A
:10096000937300F5D87303EB0113DB68D37300F5C1
:10097000D87303EB0113DB681C0A147400F5D873F9
:1009800003EB0113DB681C0C547400F5D87303EB04
:100990000113DB681B0E937421B9C36843F0200375
:1009A000C36003E0036943F02003036110BD10B589
:1009B00002460020936803F08063B3F1806F00D19A
:1009C00010E0936803F00063B3F1006F01D10120E0
:1009D00008E0936803F08053B3F1805F01D10220F7
:1009E00000E00420042874D002F5C07303EB001368
:1009F0001B6803F0010402F5C07303EB00131C60D5
:100A00000B7A7BB94B7A0C8843EA445302F5C074E5
:100A100004EB00142468234302F5C07404EB0014B3
:100A2000236010E00B7A4C6843EAC4034C7A2343FA
:100A300002F5C07404EB00142468234302F5C0746B
:100A400004EB001423608B7A03F00F038B7202F522
:100A5000C07303EB00135B6823F00F0402F5C0734F
:100A600003EB00135C6002F5C07303EB00135B68DB
:100A70008C7A234302F5C07404EB001463608B7B13
:100A80001C064B7B44EA03440B7B44EA0323CC7AE9
:100A9000234302F5C07404EB0014A3608B7C1C0696
:100AA0004B7C44EA03440B7C44EA0323CC7B234382
:100AB00002F5C07404EB0014E36002F5C07303EBAD
:100AC00000131B6843F0010402F5C07303EB00132D
:100AD0001C6010BD10B50246002321B1012907D0CA
:100AE00002290FD109E090681D4C00EA04030BE0D5
:100AF00090681C4C00EA040306E090681A4C00EA77
:100B0000040301E0002300BF00BF184C181BA342E0
:100B100016D007DC83B16FF08060184470B10228F2
:100B200018D111E0B0F5007F10D0114C204448B12D
:100B3000B0F5003F0ED10BE002230DE000230BE0E7
:100B4000002309E0002307E0012305E0012303E07F
:100B5000012301E0002300BF00BFD8B210BD000098
:100B60000300000400030008000003100001000857
:100B70000001FFF70246002002EA01030BB1012049
:100B800000E0002070472DE9F041024600250026D4
:100B9000002000230024002791F803C00CF00F056B
:100BA00091F803C00CF0100CBCF1000F03D091F8C9
:100BB00002C04CEA050591F800C0BCF1000F31D02D
:100BC000146800202BE04FF0010C0CFA00F3B1F890
:100BD00000C00CEA03069E4220D183004FF00F0CA8
:100BE0000CFA03F7BC4305FA03FC4CEA040491F841
:100BF00003C0BCF1280F06D14FF0010C0CFA00FC29
:100C0000C2F814C00AE091F803C0BCF1480F05D146
:100C10004FF0010C0CFA00FCC2F810C0401C082870
:100C2000D1D31460B1F800C0BCF1FF0F34DD5468BB
:100C300000202EE000F1080C4FF0010808FA0CF338
:100C4000B1F800C00CEA03069E4221D183004FF0A8
:100C50000F0C0CFA03F7BC4305FA03FC4CEA04043E
:100C600091F803C0BCF1280F05D100F1080C08FA77
:100C70000CF8C2F8148091F803C0BCF1480F07D1FA
:100C800000F1080C4FF0010808FA0CF8C2F81080C7
:100C9000401C0828CED35460BDE8F08170B5002117
:100CA00000230F22C47804B3154C246804F4E064D4
:100CB000C4F5E064210AC1F10403CA40447804FA8F
:100CC00003F184781440214309010E4C0678A155A4
:100CD000047804F01F050124AC4005786D11AD00C7
:100CE00005F1E025C5F8004109E0047804F01F058E
:100CF0000124AC40044D0678761145F8264070BDBD
:100D00000CED00E000E400E080E100E029B1064ADB
:100D1000D2690243044BDA6104E0034AD269824398
:100D2000014BDA61704700000010024029B1064A09
:100D300092690243044B9A6104E0034A9269824338
:100D4000014B9A61704700000010024030B500214D
:100D50000022002400232D4D6D6805F00C0121B107
:100D6000042905D0082923D105E0294D056022E09A
:100D7000274D05601FE0254D6D6805F47012234D69
:100D80006D6805F48034022505EB92421CB9214DB3
:100D9000554305600BE01D4D6D6805F400351DB130
:100DA0001C4D5543056002E0194D5543056002E0B6
:100DB000174D056000BF00BF144D6D6805F0F001D0
:100DC0000909154D6B5C0568DD4045600F4D6D6888
:100DD00005F4E061090A104D6B5C4568DD408560F3
:100DE0000A4D6D6805F46051C90A0B4D6B5C45688E
:100DF000DD40C560054D6D6805F44041890B074D28
:100E00006B5CC568B5FBF3F5056130BD00100240B1
:100E100000127A0000093D000100002011000020AE
:100E200010B500F001F810BD0CB500200190009045
:100E30003348006840F480303149086000BF3048D2
:100E4000006800F4003000900198401C0190009868
:100E500018B90198B0F5A06FF1D12948006800F4E5
:100E6000003010B10120009001E0002000900098B7
:100E7000012843D12348006840F010002149086050
:100E80000846006820F0030008600846006840F04B
:100E9000020008601A4840681949486008464068DE
:100EA00048600846406840F48060486008464068F2
:100EB00020F47C1048600846406840F4E810486020
:100EC0000846006840F08070086000BF0C48006869
:100ED00000F000700028F9D00948406820F00300B5
:100EE000074948600846406840F00200486000BF7B
:100EF0000348406800F00C000828F9D10CBD000040
:100F0000001002400020024010B51348006840F075
:100F100001001149086008464068104908400E4920
:100F20004860084600680E4908400B4908600846BA
:100F3000006820F4802008600846406820F4FE0025
:100F400048604FF41F008860FFF76AFF4FF00060B1
:100F50000449086010BD0000001002400000FFF8C6
:100F6000FFFFF6FE08ED00E010B586B001211A483B
:100F700000F047F868B30020029040F25D600190F5
:100F800000208DF80C008DF80D0001208DF80E006A
:100F9000124800783030C0B28DF80F0001A9104817
:100FA000FFF705FD044600BF21460D48FFF792FDFF
:100FB0000128F9D109480078401CC0B207490870DF
:100FC000022801DD002008700121034800F00AF822
:100FD00000BF06B010BD0000002C01400000002042
:100FE00000640040CA430282704721B1028842F087
:100FF0000102028004E002884FF6FE731A4002806C
:10100000704730B50246002000230024158A05EA07
:101010000103958905EA010413B10CB1012000E038
:10102000002030BD1AB183890B43838102E083899C
:101030008B43838170470000002202881D4B984239
:101040000ED01D4B98420BD0B0F1804F08D01B4BF7
:10105000984205D01A4B984202D01A4B984204D1BC
:101060004FF68F731A404B881A43174B984207D09C
:10107000164B984204D04FF6FF431A40CB881A43D0
:1010800002808B8883850B8803850A4B98420BD09E
:10109000094B984208D00E4B984205D00D4B984210
:1010A00002D00D4B984201D10B7A03860123838233
:1010B00070470000002C0140003401400004004053
:1010C00000080040000C00400010004000140040E8
:1010D00000400140004401400048014021B18289A4
:1010E00042F40052828104E082894DF6FF731A4077
:1010F0008281704702460020B1F5007F00D100BF19
:1011000013880B400BB1012000E000207047000065
:101110002DE9F04786B005460E460024A24600BFE2
:10112000A1460027B08900B100BF2F462C8A4CF69B
:10113000FF700440F08804432C82AC894EF6F31013
:101140000440B08831890843718908430443AC8165
:10115000AC8A4FF6FF400440B0890443AC8201A83A
:10116000FFF7F4FD1F48874202D1DDF810A001E02F
:10117000DDF80CA0A88900F4004040B10AEBCA00D9
:1011800000EB0A1031684900B0FBF1F807E00AEB08
:10119000CA0000EB0A1031688900B0FBF1F8642046
:1011A000B8FBF0F004012009642101FB1089A88933
:1011B00000F4004040B1322000EBC900B0FBF1F078
:1011C00000F00700044308E0322000EB091064211E
:1011D000B0FBF1F000F00F0004432C8106B0BDE835
:1011E000F087000000380140C1F308028280704798
:1011F00010B501210748FFF73FFA50B106A110488A
:10120000FEF7EAFF0E4800F0A1F901210148FFF7BF
:101210005BF910BD006400404D6573736167652024
:10122000747261736D697420636F6D706C65746541
:101230003A204D61696C626F78300D0A0000000041
:101240001800002000B585B002212548FFF714FAE8
:10125000002842D023A12C48FEF7BEFF2A4800F008
:1012600075F90020019000908DF808008DF80900B4
:1012700001208DF80A0000208DF813008DF80B0076
:101280006A4600211648FFF71AFB20A000F05EF91D
:1012900023A11D48009AFEF79FFF1B4800F056F956
:1012A00021A000F053F99DF80A201DA11648FEF771
:1012B00093FF154800F04AF920A000F047F90DF11E
:1012C0000B0221A11048FEF787FF0F4800F03EF9FE
:1012D00002210348FFF7F8F800BF05B000BD000089
:1012E000006400404D6573736167652072656365D6
:1012F00069766520636F6D706C6574653A20464948
:10130000464F300D0A000000180000200D0A43412E
:101310004E205374616E646172642049443A200027
:1013200025640D0A0000000043414E2044617461B1
:10133000204C656E6774683A2000000043414E20DF
:10134000446174613A20000025730D0A0D0A000003
:101350008CB000F0ABF801210420FFF7E7FC482037
:101360008DF82F004FF40060ADF82C0003208DF8AD
:101370002E000BA94A48FFF706FC18208DF82F0015
:101380004FF48050ADF82C000BA94548FFF7FBFB4C
:101390000121C802FFF7CAFC0020ADF82600ADF815
:1013A000220047F22F50ADF8240041F61F40ADF85F
:1013B000200000208DF8280008A93A48FFF73CFEDD
:1013C00001213848FFF711FE012211463548FFF789
:1013D00029FE01214806FFF799FC01208DF816002F
:1013E0000220ADF8140000208DF817000E208DF8B3
:1013F000180001208DF819008DF81D008DF81B00D4
:1014000000208DF81C008DF81E008DF81A008DF854
:101410001F0005A92448FFF7C8F9012211462248F8
:10142000FFF7BAF9012202211F48FFF7B5F90120A1
:101430008DF8110000208DF80E00ADF80C00ADF80D
:101440000400ADF80600ADF80800ADF80A008DF80C
:101450000F0001208DF8100001A8FFF789F8132074
:101460008DF8000001208DF803000F208DF8010099
:1014700000208DF802006846FFF710FC14208DF85C
:1014800000006846FFF70AFC19208DF800000020D4
:101490008DF801006846FFF701FC00BFFEE7000081
:1014A00000080140002C01400064004000B585B0F8
:1014B00001210420FFF73AFC04208DF813000002FC
:1014C000ADF8100004A91748FFF75DFB18208DF850
:1014D00013004FF40070ADF8100003208DF81200D7
:1014E00004A91048FFF74FFB01218803FFF71EFCFA
:1014F0004FF4165000900020ADF80C000C20ADF811
:101500000A000020ADF80800ADF80600ADF80400B0
:1015100069460548FFF7FCFD01210348FFF7DEFDA2
:1015200005B000BD000801400038014010B5044678
:1015300021460548FFF758FE00BF80210248FFF70B
:10154000D9FD0028F9D010BD0038014070B504461F
:10155000002505E029466A1CD5B2605CFFF7E6FF6E
:10156000605D0028F6D170BD8815000800000020DD
:101570001800000028010008A0150008180000202D
:101580008006000044010008000000000001020382
:10159000040102030406070809020406080000000B
:04000005080000ED02
:00000001FF
