:020000040800F2
:100000009806002099010008A1010008A30100083A
:10001000A5010008A7010008A901000800000000D0
:10002000000000000000000000000000AB0100081C
:10003000AD01000800000000AF010008B101000898
:10004000B3010008B3010008B3010008B3010008C0
:10005000B3010008B3010008B3010008B3010008B0
:10006000B3010008B3010008B3010008B3010008A0
:10007000B3010008B3010008B3010008B301000890
:10008000B3010008B3010008B30100082D110008F6
:1000900011120008C7040008C9040008B3010008D1
:1000A000B3010008B3010008B3010008B301000860
:1000B000B3010008B3010008B3010008B301000850
:1000C000B3010008B3010008B3010008B301000840
:1000D000B3010008B3010008B3010008B301000830
:1000E000B3010008B3010008B301000800F002F8F2
:1000F00000F042F80AA090E8000C82448344AAF180
:100100000107DA4501D100F037F8AFF2090EBAE87D
:100110000F0013F0010F18BFFB1A43F0010318473B
:100120005814000078140000103A24BF78C878C131
:10013000FAD8520724BF30C830C144BF04680C60ED
:10014000704700000023002400250026103A28BF35
:1001500078C1FBD8520728BF30C148BF0B60704739
:10016000642900F0AB80732900F06F810020704794
:100170001FB51FBD10B510BD00F06BF91146FFF79C
:10018000F7FF01F06DF800F089F903B4FFF7F2FF13
:1001900003BC00F091F90000094880470948004776
:1001A000FEE7FEE7FEE7FEE7FEE7FEE7FEE7FEE727
:1001B000FEE7FEE704480549054A064B7047000084
:1001C000B90F0008ED0000089800002098060020F4
:1001D00098020020980200200FB41CB5074B06AA15
:1001E0007B4469460090059800F005F900206946B7
:1001F00000F014F91CBC5DF814FB0000390200008B
:100200002DE9F0410E460446002020622046E168B8
:10021000884730B3252805D0D4E901219047206ACA
:10022000401CF2E7E168204600278847050018D007
:10023000A5F14100192802D820354FF40067324655
:10024000294620462760FFF78BFF40B1012804D0E4
:10025000F61D26F007060836D8E7361DD6E72846ED
:10026000DAE7206ABDE8F08170B50C460546012A40
:1002700005D02878800600D5EA69002302E0012332
:1002800005E05B1C934202D2E05C0028F9D1A8692A
:10029000E618C01AA861286A184428622846AFF3F5
:1002A000008004E0D5E9012114F8010B9047B44225
:1002B000F8D32846AFF3008070BD00002DE9F0416F
:1002C0000646002410687529314616A510D0AFF3F4
:1002D0000080002802DA404213A507E031688A074F
:1002E00001D512A502E0490704D511A5012401E0BA
:1002F000AFF3008000210A2206F1240709E0B0FBD9
:10030000F2FCB0FBF2F302FB1C00303078541846CC
:10031000491C0028F3D123462A463046BDE8F04167
:1003200000F00BB8000000002D0000002B000000C2
:10033000200000007047704770472DE9F0470D46D8
:1003400099469246044600F124080168880604D5BF
:10035000E06921F01001216000E00120A84201DDE8
:10036000471B00E00027A1697A1902EB0900081A6F
:10037000A0612078C00602D42046AFF3008000269A
:1003800008E0D4E901211AF806009047206A401CD1
:10039000761C20624E45F4DB2078C0060AD5204644
:1003A000AFF3008006E0D4E9012130209047206AB5
:1003B000401C2062381EA7F10107F4DC07E0D4E9F5
:1003C000012118F805009047206A401C2062281E71
:1003D000A5F10105F3DC2046AFF30080207800068C
:1003E00002D50220BDE8F0870120FBE701694A1C25
:1003F00002610878704700B58FB0CDE90131002166
:10040000059105497944CDE9031011466846FFF787
:10041000F7FE0FB000BD0000E5FFFFFF0A6802F81D
:10042000010B0A60704710B5436913B1AFF3008048
:1004300001E0FFF719FF012010BD127800F124013F
:100440000A7000224A700122EDE711684FF0FF3276
:10045000E9E7754600F02CF8AE46050069465346BC
:1004600020F00700854618B020B5FFF7A3FEBDE8D1
:1004700020404FF000064FF000074FF000084FF00B
:10048000000B21F00701AC46ACE8C009ACE8C0099C
:10049000ACE8C009ACE8C0098D46704710B5044609
:1004A000AFF300802046BDE81040FFF76EBE0000AD
:1004B000004870473400002001491820ABBEFEE719
:1004C000260002007047704710B54FF400711A48BB
:1004D00000F02AF958B119A11C48FFF77DFE1B480E
:1004E00001F03CF84FF40071134800F045F84FF468
:1004F0008071114800F018F958B115A11348FFF7A1
:100500006BFE124801F02AF84FF480710A4800F09F
:1005100033F84FF48061084800F006F958B110A193
:100520000A48FFF759FE094801F018F84FF48061B6
:10053000014800F021F810BD006400404572726F60
:10054000723A204550560D0A0000000014000020A9
:100550004572726F723A204557470D0A000000003D
:100560004572726F723A20424F46204275732D6F6A
:1005700066660D0A00000000B1F5007F3AD00FDC7E
:10058000202928D006DC01291CD004291DD00829E7
:1005900040D11DE0402921D0B1F5807F3AD126E03D
:1005A000B1F5004F31D006DCB1F5806F25D0B1F543
:1005B000006F2FD124E0B1F5803F12D0B1F5003F9C
:1005C00028D111E0154A826025E00822C26022E0AD
:1005D0001022C2601FE0082202611CE010220261AA
:1005E00019E00822426016E01022426013E0042263
:1005F000426010E0042242600DE0042242600AE002
:10060000002282610422426005E00022826104220D
:10061000426000E000BF00BF704700000101010020
:1006200010B50021837A012202FA03F13D4A1268D3
:1006300042F001023B4B1A603A4A1C3212688A436C
:10064000384B1C331A60027BCAB9364A0C32126826
:100650008A43344B0C331A604288C38842EA03430E
:10066000304A4032847A42F834300288838842EA41
:1006700003432C4A4032847A02EBC4025360027B6B
:10068000012A19D1274A0C3212680A43254B0C3330
:100690001A604288038842EA0343224A4032847A3D
:1006A00042F83430C288838842EA03431D4A40320C
:1006B000847A02EBC4025360C27A3AB9194A121D15
:1006C00012688A43174B1B1D1A6006E0154A121D5B
:1006D00012680A43134B1B1D1A60028932B9114A72
:1006E000143212688A430F4B14331A600289012AAC
:1006F00006D10C4A143212680A430A4B14331A60AA
:10070000427B012A06D1074A1C3212680A43054B74
:100710001C331A60034A126822F00102014B1A606E
:1007200010BD00000066004070B504460D4600266E
:1007300060692840002871D0B5F5807F5CD010DC5E
:10074000082D35D006DC012D20D0022D24D0042D1B
:1007500072D127E0102D31D0202D35D0402D6BD116
:1007600038E0B5F5004F60D009DCB5F5007F49D021
:10077000B5F5806F4CD0B5F5006F5DD14FE0B5F5A4
:10078000803F2DD0B5F5003F56D12FE0A0682D4910
:1007900000F048FA064651E0E068032100F042FA12
:1007A00006464BE0E068082100F03CFA064645E0CA
:1007B000E068102100F036FA06463FE02069032188
:1007C00000F030FA064639E02069082100F02AFAE4
:1007D000064633E02069102100F024FA06462DE099
:1007E0006068082100F01EFA064627E060681021C4
:1007F00000F018FA064621E0A069012100F012FA83
:1008000006461BE0A069022100F00CFA064615E03E
:10081000A069042100F006FA06460FE00FE0A06987
:10082000702100F0FFF9064608E06068042100F03E
:10083000F9F9064602E0FFE7002600BF00E00026C7
:10084000304670BD010101001AB143690B43436199
:1008500002E043698B434361704730B50246002094
:100860000023146824F002041460146844F00104A6
:10087000146000E05B1C546804F001041CB94FF6DE
:10088000FF74A342F6D1546804F001040CB90020AF
:100890006CE08C79012C04D1146844F0800414605D
:1008A00003E0146824F080041460CC79012C04D196
:1008B000146844F04004146003E0146824F0400419
:1008C00014600C7A012C04D1146844F020041460E4
:1008D00003E0146824F0200414604C7A012C04D145
:1008E000146844F01004146003E0146824F0100449
:1008F00014608C7A012C04D1146844F0080414604C
:1009000003E0146824F008041460CC7A012C04D1AC
:10091000146844F00404146003E0146824F0040430
:1009200014608C78A407CD7844EA05640D7944EA14
:1009300005444D7944EA05540D886D1E2C43D4615D
:10094000146824F001041460002300E05B1C546868
:1009500004F001041CB14FF6FF74A342F6D15468B1
:1009600004F001040CB1002000E0012030BD10B5FE
:1009700000F5D87303EB01131B6803F00403137233
:10098000137A53B900F5D87303EB01131B6840F2D7
:10099000FF7404EA5353136009E000F5D87303EBC6
:1009A00001131B686FF0604404EAD303536000F541
:1009B000D87303EB01131B6803F00203537200F5B5
:1009C000D87303EB01135B6803F00F03937200F518
:1009D000D87303EB01135B681B0AD37400F5D8735B
:1009E00003EB01139B68D37200F5D87303EB01137B
:1009F0009B681C0A147300F5D87303EB01139B6802
:100A00001C0C547300F5D87303EB01139B681B0E89
:100A1000937300F5D87303EB0113DB68D37300F510
:100A2000D87303EB0113DB681C0A147400F5D87348
:100A300003EB0113DB681C0C547400F5D87303EB53
:100A40000113DB681B0E937421B9C36843F02003C4
:100A5000C36003E0036943F02003036110BD10B5D8
:100A600002460020936803F08063B3F1806F00D1E9
:100A700010E0936803F00063B3F1006F01D101202F
:100A800008E0936803F08053B3F1805F01D1022046
:100A900000E00420042874D002F5C07303EB0013B7
:100AA0001B6803F0010402F5C07303EB00131C6024
:100AB0000B7A7BB94B7A0C8843EA445302F5C07435
:100AC00004EB00142468234302F5C07404EB001403
:100AD000236010E00B7A4C6843EAC4034C7A23434A
:100AE00002F5C07404EB00142468234302F5C074BB
:100AF00004EB001423608B7A03F00F038B7202F572
:100B0000C07303EB00135B6823F00F0402F5C0739E
:100B100003EB00135C6002F5C07303EB00135B682A
:100B20008C7A234302F5C07404EB001463608B7B62
:100B30001C064B7B44EA03440B7B44EA0323CC7A38
:100B4000234302F5C07404EB0014A3608B7C1C06E5
:100B50004B7C44EA03440B7C44EA0323CC7B2343D1
:100B600002F5C07404EB0014E36002F5C07303EBFC
:100B700000131B6843F0010402F5C07303EB00137C
:100B80001C6010BD10B50246002321B1012907D019
:100B900002290FD109E090681D4C00EA04030BE024
:100BA00090681C4C00EA040306E090681A4C00EAC6
:100BB000040301E0002300BF00BF184C181BA34230
:100BC00016D007DC83B16FF08060184470B1022842
:100BD00018D111E0B0F5007F10D0114C204448B17D
:100BE000B0F5003F0ED10BE002230DE000230BE037
:100BF000002309E0002307E0012305E0012303E0CF
:100C0000012301E0002300BF00BFD8B210BD0000E7
:100C100003000004000300080000031000010008A6
:100C20000001FFF70246002002EA01030BB1012098
:100C300000E0002070472DE9F04102460025002623
:100C4000002000230024002791F803C00CF00F05BA
:100C500091F803C00CF0100CBCF1000F03D091F818
:100C600002C04CEA050591F800C0BCF1000F31D07C
:100C7000146800202BE04FF0010C0CFA00F3B1F8DF
:100C800000C00CEA03069E4220D183004FF00F0CF7
:100C90000CFA03F7BC4305FA03FC4CEA040491F890
:100CA00003C0BCF1280F06D14FF0010C0CFA00FC78
:100CB000C2F814C00AE091F803C0BCF1480F05D196
:100CC0004FF0010C0CFA00FCC2F810C0401C0828C0
:100CD000D1D31460B1F800C0BCF1FF0F34DD54680B
:100CE00000202EE000F1080C4FF0010808FA0CF388
:100CF000B1F800C00CEA03069E4221D183004FF0F8
:100D00000F0C0CFA03F7BC4305FA03FC4CEA04048D
:100D100091F803C0BCF1280F05D100F1080C08FAC6
:100D20000CF8C2F8148091F803C0BCF1480F07D149
:100D300000F1080C4FF0010808FA0CF8C2F8108016
:100D4000401C0828CED35460BDE8F08170B5002166
:100D500000230F22C47804B3154C246804F4E06423
:100D6000C4F5E064210AC1F10403CA40447804FADE
:100D700003F184781440214309010E4C0678A155F3
:100D8000047804F01F050124AC4005786D11AD0016
:100D900005F1E025C5F8004109E0047804F01F05DD
:100DA0000124AC40044D0678761145F8264070BD0C
:100DB0000CED00E000E400E080E100E029B1064A2B
:100DC000D2690243044BDA6104E0034AD2698243E8
:100DD000014BDA61704700000010024029B1064A59
:100DE00092690243044B9A6104E0034A9269824388
:100DF000014B9A61704700000010024030B500219D
:100E00000022002400232D4D6D6805F00C0121B156
:100E1000042905D0082923D105E0294D056022E0E9
:100E2000274D05601FE0254D6D6805F47012234DB8
:100E30006D6805F48034022505EB92421CB9214D02
:100E4000554305600BE01D4D6D6805F400351DB17F
:100E50001C4D5543056002E0194D5543056002E005
:100E6000174D056000BF00BF144D6D6805F0F0011F
:100E70000909154D6B5C0568DD4045600F4D6D68D7
:100E800005F4E061090A104D6B5C4568DD40856042
:100E90000A4D6D6805F46051C90A0B4D6B5C4568DD
:100EA000DD40C560054D6D6805F44041890B074D77
:100EB0006B5CC568B5FBF3F5056130BD0010024001
:100EC00000127A0000093D00000000201000002000
:100ED00010B500F001F810BD0CB500200190009095
:100EE0003348006840F480303149086000BF304822
:100EF000006800F4003000900198401C01900098B8
:100F000018B90198B0F5A06FF1D12948006800F434
:100F1000003010B10120009001E000200090009806
:100F2000012843D12348006840F01000214908609F
:100F30000846006820F0030008600846006840F09A
:100F4000020008601A48406819494860084640682D
:100F500048600846406840F4806048600846406841
:100F600020F47C1048600846406840F4E81048606F
:100F70000846006840F08070086000BF0C480068B8
:100F800000F000700028F9D00948406820F0030004
:100F9000074948600846406840F00200486000BFCA
:100FA0000348406800F00C000828F9D10CBD00008F
:100FB000001002400020024010B51348006840F0C5
:100FC00001001149086008464068104908400E4970
:100FD0004860084600680E4908400B49086008460A
:100FE000006820F4802008600846406820F4FE0075
:100FF00048604FF41F008860FFF76AFF4FF0006001
:101000000449086010BD0000001002400000FFF815
:10101000FFFFF6FE08ED00E021B1828942F40052A4
:10102000828104E082894DF6FF731A408281704705
:1010300002460020B1F5007F00D100BF13880B40AD
:101040000BB1012000E00020704700002DE9F047BF
:1010500086B005460E460024A24600BFA1460027E2
:10106000B08900B100BF2F462C8A4CF6FF700440B7
:10107000F08804432C82AC894EF6F3100440B0880B
:1010800031890843718908430443AC81AC8A4FF627
:10109000FF400440B0890443AC8201A8FFF7AEFED4
:1010A0001F48874202D1DDF810A001E0DDF80CA056
:1010B000A88900F4004040B10AEBCA0000EB0A1016
:1010C00031684900B0FBF1F807E00AEBCA0000EB19
:1010D0000A1031688900B0FBF1F86420B8FBF0F029
:1010E00004012009642101FB1089A88900F4004053
:1010F00040B1322000EBC900B0FBF1F000F0070076
:10110000044308E0322000EB09106421B0FBF1F049
:1011100000F00F0004432C8106B0BDE8F08700000A
:1011200000380140C1F308028280704710B50121E8
:101130001748FFF7F9FA50B116A12048FFF74CF80D
:101140001E4800F00BFA01211148FFF715FA0121A2
:101150000F48FFF7E9FA50B119A11848FFF73CF81A
:10116000164800F0FBF901210948FFF705FA0121B3
:101170000748FFF7D9FA50B11BA11048FFF72CF828
:101180000E4800F0EBF901210148FFF7F5F910BD19
:10119000006400404D65737361676520747261730C
:1011A0006D697420636F6D706C6574653A204D6174
:1011B000696C626F78300D0A000000001400002096
:1011C0004D65737361676520747261736D69742016
:1011D000636F6D706C6574653A204D61696C626F08
:1011E00078310D0A000000004D657373616765205A
:1011F000747261736D697420636F6D706C65746572
:101200003A204D61696C626F78320D0A000000006F
:1012100010B502210748FFF787FA50B106A10F4821
:10122000FEF7DAFF0D4800F099F902210148FFF7B7
:10123000A3F910BD006400404D65737361676520BC
:101240007265636569766520636F6D706C65746542
:101250003A204649464F300D0A0000001400002095
:1012600094B000F02BF901210420FFF7B7FD4820CE
:101270008DF84F004FF40060ADF84C0003208DF85E
:101280004E0013A97948FFF7D6FC18208DF84F00BF
:101290004FF48050ADF84C0013A97448FFF7CBFC15
:1012A00001214806FFF78AFD01208DF84200022047
:1012B000ADF8400000208DF843000E208DF844006A
:1012C00001208DF845008DF8490000208DF8470079
:1012D0008DF848008DF84A008DF846008DF84B00D7
:1012E00010A96348FFF7B9FA012211466048FFF7D9
:1012F000ABFA012211465E48FFF7A6FA0122114619
:101300005B48FFF7A1FA012202215948FFF79CFA36
:10131000012251025648FFF797FA01221102544860
:10132000FFF792FA012291025148FFF78DFA01204E
:101330008DF83D0000208DF83A00ADF83800ADF88A
:101340003000ADF83200ADF83400ADF836008DF85D
:101350003B0001208DF83C000CA8FFF761F900204C
:10136000089040F25D60079000208DF824008DF811
:10137000250005208DF8260048208DF827004521FE
:1013800007A801734C21417381734F21C17307A9D1
:101390003748FFF764FB044600BF21463448FFF797
:1013A000F1FB0128F9D10020039002908DF8100084
:1013B0008DF8110005208DF8120000208DF81B001B
:1013C0008DF8130000218DF814108DF815108DF88C
:1013D00016108DF8171002AA2548FFF7C8FA25A0A5
:1013E00000F0BCF828A12A48029AFEF7F5FE28482A
:1013F00000F0B4F827A000F0B1F89DF8122022A167
:101400002348FEF7E9FE224800F0A8F826A000F0E5
:10141000A5F80DF1130227A11D48FEF7DDFE1C48BB
:1014200000F09CF813208DF8040001208DF80700CF
:101430000F208DF8050000208DF8060001A8FFF7A9
:1014400085FC14208DF8040001A8FFF77FFC15200F
:101450008DF8040001A8FFF779FC16208DF8040030
:1014600001A8FFF773FC00BFFEE700000008014081
:10147000006400400D0A43414E205374616E646164
:1014800072642049443A200025640D0A00000000DF
:101490001400002043414E2044617461204C656E6D
:1014A0006774683A2000000043414E204461746133
:1014B0003A20000025730D0A0D0A000000B585B022
:1014C00001210420FFF78AFC04208DF8130000029C
:1014D000ADF8100004A91748FFF7ADFB18208DF8F0
:1014E00013004FF40070ADF8100003208DF81200C7
:1014F00004A91048FFF79FFB01218803FFF76EFC4A
:101500004FF4165000900020ADF80C000C20ADF800
:101510000A000020ADF80800ADF80600ADF80400A0
:1015200069460548FFF792FD01210348FFF774FD66
:1015300005B000BD000801400038014010B5044668
:1015400021460548FFF7EEFD00BF80210248FFF766
:101550006FFD0028F9D010BD0038014070B5044679
:10156000002505E029466A1CD5B2605CFFF7E6FF5E
:10157000605D0028F6D170BD9815000800000020BD
:101580001400000028010008AC1500081400002019
:10159000840600004401000800000000010203046A
:0C15A00001020304060708090204060803
:04000005080000ED02
:00000001FF
