:020000040800F2
:10000000600600206D0100087501000877010008F6
:10001000790100087B0100087D0100080000000054
:100020000000000000000000000000007F01000848
:10003000810100080000000083010008850100081C
:100040008701000887010008870100088701000870
:100050008701000887010008870100088701000860
:100060008701000887010008870100088701000850
:100070008701000887010008870100088701000840
:100080008701000887010008870100088701000830
:100090008701000887010008870100088701000820
:1000A0008701000887010008870100088701000810
:1000B0008701000887010008870100088701000800
:1000C00087010008870100088701000887010008F0
:1000D00087010008870100088701000887010008E0
:1000E00087010008870100088701000800F002F876
:1000F00000F02CF80AA090E8000C82448344AAF196
:100100000107DA4501D100F021F8AFF2090EBAE893
:100110000F0013F0010F18BFFB1A43F0010318473B
:10012000600700007007000000230024002500265F
:10013000103A28BF78C1FBD8520728BF30C148BF4A
:100140000B6070471FB51FBD10B510BD00F031F832
:100150001146FFF7F7FF00F023FB00F04FF803B460
:10016000FFF7F2FF03BC00F057F800000948804792
:1001700009480047FEE7FEE7FEE7FEE7FEE7FEE789
:10018000FEE7FEE7FEE7FEE704480549054A064BA1
:100190007047000041070008ED00000860000020E3
:1001A0006006002060020020600200207047704757
:1001B0007047754600F02CF8AE4605006946534678
:1001C00020F00700854618B020B5FFF7DDFFBDE839
:1001D00020404FF000064FF000074FF000084FF0AE
:1001E000000B21F00701AC46ACE8C009ACE8C0093F
:1001F000ACE8C009ACE8C0098D46704710B50446AC
:10020000AFF300802046BDE81040FFF7A8BF000014
:10021000004870470000002001491820ABBEFEE7EF
:1002200026000200704730B5024600200023146803
:1002300024F002041460146844F00104146000E027
:100240005B1C546804F001041CB94FF6FF74A34210
:10025000F6D1546804F001040CB900206CE08C79EC
:10026000012C04D1146844F08004146003E0146885
:1002700024F080041460CC79012C04D1146844F07B
:100280004004146003E0146824F0400414600C7A05
:10029000012C04D1146844F02004146003E01468B5
:1002A00024F0200414604C7A012C04D1146844F02A
:1002B0001004146003E0146824F0100414608C7AB5
:1002C000012C04D1146844F00804146003E014689D
:1002D00024F008041460CC7A012C04D1146844F092
:1002E0000404146003E0146824F0040414608C789F
:1002F000A407CD7844EA05640D7944EA05444D79B4
:1003000044EA05540D886D1E2C43D461146824F012
:1003100001041460002300E05B1C546804F0010435
:100320001CB14FF6FF74A342F6D1546804F00104E7
:100330000CB1002000E0012030BD10B502460020C5
:10034000936803F08063B3F1806F00D110E093688D
:1003500003F00063B3F1006F01D1012008E093685E
:1003600003F08053B3F1805F01D1022000E004204C
:10037000042874D002F5C07303EB00131B6803F06C
:10038000010402F5C07303EB00131C600B7A7BB908
:100390004B7A0C8843EA445302F5C07404EB001412
:1003A0002468234302F5C07404EB0014236010E0BA
:1003B0000B7A4C6843EAC4034C7A234302F5C074B9
:1003C00004EB00142468234302F5C07404EB00140A
:1003D00023608B7A03F00F038B7202F5C07303EB7B
:1003E00000135B6823F00F0402F5C07303EB0013E6
:1003F0005C6002F5C07303EB00135B688C7A2343E7
:1004000002F5C07404EB001463608B7B1C064B7B0D
:1004100044EA03440B7B44EA0323CC7A234302F5EA
:10042000C07404EB0014A3608B7C1C064B7C44EA74
:1004300003440B7C44EA0323CC7B234302F5C074C2
:1004400004EB0014E36002F5C07303EB00131B68B8
:1004500043F0010402F5C07303EB00131C6010BDF0
:1004600010B50246002321B1012907D002290FD17E
:1004700009E090681D4C00EA04030BE090681C4CF6
:1004800000EA040306E090681A4C00EA040301E065
:10049000002300BF00BF184C181BA34216D007DC76
:1004A00083B16FF08060184470B1022818D111E058
:1004B000B0F5007F10D0114C204448B1B0F5003F9A
:1004C0000ED10BE002230DE000230BE0002309E036
:1004D000002307E0012305E0012303E0012301E0FD
:1004E000002300BF00BFD8B210BD0000030000040D
:1004F0000003000800000310000100080001FFF7DE
:100500002DE9F041024600250026002000230024AA
:10051000002791F803C00CF00F0591F803C00CF010
:10052000100CBCF1000F03D091F802C04CEA050595
:1005300091F800C0BCF1000F31D0146800202BE00E
:100540004FF0010C0CFA00F3B1F800C00CEA0306FE
:100550009E4220D183004FF00F0C0CFA03F7BC43EE
:1005600005FA03FC4CEA040491F803C0BCF1280F1F
:1005700006D14FF0010C0CFA00FCC2F814C00AE0DE
:1005800091F803C0BCF1480F05D14FF0010C0CFAF3
:1005900000FCC2F810C0401C0828D1D31460B1F888
:1005A00000C0BCF1FF0F34DD546800202EE000F1E4
:1005B000080C4FF0010808FA0CF3B1F800C00CEA7F
:1005C00003069E4221D183004FF00F0C0CFA03F773
:1005D000BC4305FA03FC4CEA040491F803C0BCF1E7
:1005E000280F05D100F1080C08FA0CF8C2F81480A5
:1005F00091F803C0BCF1480F07D100F1080C4FF08F
:10060000010808FA0CF8C2F81080401C0828CED364
:100610005460BDE8F081000029B1064AD269024366
:10062000044BDA6104E0034AD2698243014BDA6188
:10063000704700000010024029B1064A9269024347
:10064000044B9A6104E0034A92698243014B9A6128
:10065000704700000010024010B500F001F810BD16
:100660000CB50020019000903348006840F48030C1
:100670003149086000BF3048006800F40030009045
:100680000198401C0190009818B90198B0F5A06F2E
:10069000F1D12948006800F4003010B10120009029
:1006A00001E0002000900098012843D12348006811
:1006B00040F01000214908600846006820F003005F
:1006C00008600846006840F0020008601A48406868
:1006D000194948600846406848600846406840F448
:1006E000806048600846406820F47C1048600846F6
:1006F000406840F4E81048600846006840F08070A8
:10070000086000BF0C48006800F000700028F9D0B5
:100710000948406820F003000749486008464068DF
:1007200040F00200486000BF0348406800F00C0041
:100730000828F9D10CBD0000001002400020024042
:1007400010B51348006840F00100114908600846E0
:100750004068104908400E494860084600680E4944
:1007600008400B4908600846006820F480200860B3
:100770000846406820F4FE0048604FF41F0088607F
:10078000FFF76AFF4FF000600449086010BD0000E9
:10079000001002400000FFF8FFFFF6FE08ED00E049
:1007A0008AB001210420FFF747FF48208DF8270079
:1007B0004FF40060ADF8240003208DF8260009A94D
:1007C0002D48FFF79DFE18208DF827004FF480502C
:1007D000ADF8240009A92848FFF792FE0121480638
:1007E000FFF71AFF01208DF81A000220ADF818005B
:1007F00000208DF81B000E208DF81C0001208DF8C4
:100800001D008DF8210000208DF81F008DF82000BC
:100810008DF822008DF81E008DF8230006A91748D8
:10082000FFF701FD0020029040F25D600190002082
:100830008DF80C008DF80D0005208DF80E00482075
:100840008DF80F0045218DF810104C218DF81110F6
:100850008DF812104F218DF8131001A90748FFF7EA
:100860006CFD044600BF21460448FFF7F9FD01284E
:10087000F9D100BFFEE7000000080140006400401D
:100880009008000800000020600600002801000811
:04000005080000ED02
:00000001FF
